:100000000C9463010C9482010C9480010C94A20165
:100010000C9480010C94C2010C9480010C9480011A
:100020000C9480010C9480010C9449030C94800181
:100030000C9480010C9480010C940C020C948001AF
:100040000C9480010C9480010C9460040C94800149
:100050000C9480010C9486030C9480010C94800114
:100060000C9480010C948001FC0641078607CB07A5
:1000700010085B08A608F1083C098709D209230A81
:10008000740AC50A160B0500000000000500005F99
:10009000000005000700070005147F147F140524E5
:1000A0002A7F2A1205231308646205364956205018
:1000B00005080703000005001C224100050041223D
:1000C0001C000514083E08140508083E0808050031
:1000D000B07000000508080808080500606000000E
:1000E000052010080402053E5149453E0500427FA7
:1000F0004000057249494946052141494D330518DB
:1001000014127F10052745454539053C4A494931B8
:10011000054121110907053649494936054649492E
:10012000291E0500001400000500403400000508E9
:10013000142241000514141414140541221408005B
:10014000050201590906053E415D594E057C121113
:10015000127C057F49494936053E41414122057FD0
:100160004141413E057F49494949057F090909093E
:10017000053E41415173057F0808087F0500417F16
:100180004100052040413F01057F08142241057FC1
:1001900040404040057F020C027F057F0408107F2D
:1001A000053E4141413E057F09090906053E415191
:1001B000215E057F0919294605264949493205016D
:1001C000017F0101053F4040403F051F2040201FA7
:1001D000053F4038403F0563140814630503047865
:1001E000040305615149454305007F414100050273
:1001F00004081020050041417F00050402010204AB
:1002000005404040404005070B00000005205454C5
:100210007840057F2844443805384444442805384C
:100220004444287F0538545454180500087E0902B8
:100230000518A4A49C78057F080404780500447D73
:100240004000052040403D00057F10284400050087
:10025000417F4000057C04780478057C080404781C
:1002600005384444443805FC18242418051824246F
:1002700018FC057C0804040805485454542405045B
:10028000043F4424053C4040207C051C2040201CA9
:10029000053C4030403C054428102844054C9090D3
:1002A000907C054464544C44050008364100050028
:1002B0000077000005004136080005040204080428
:1002C00005007F417F0011241FBECFEFD8E0DEBFC5
:1002D000CDBF11E0A0E0B1E0E8E5FDE202C005908D
:1002E0000D92A234B107D9F725E0A2E4B1E001C034
:1002F0001D92A03BB207E1F70E94D7040C94AA1606
:100300000C9400001F920F920FB60F9211248F933E
:100310009F9380914C0190914D01019690934D01D6
:1003200080934C0180914A0190914B0101969093EA
:100330004B0180934A019F918F910F900FBE0F90B8
:100340001F9018951F920F920FB60F9211248F9342
:10035000199912C080914501882319F0813039F034
:100360000BC01092020181E08093450105C081E03D
:1003700080930201109245018F910F900FBE0F9054
:100380001F9018951F920F920FB60F9211242F9362
:100390003F934F935F936F937F938F939F93AF930D
:1003A000BF93EF93FF934D990BC060919F01623013
:1003B00038F0615060939F0180E090E00E946516E4
:1003C0004C990BC060919F01683C38F46F5F60935B
:1003D0009F0180E090E00E9465164F9904C082E082
:1003E0008093030108C04E9903C01092030103C01B
:1003F00081E080930301FF91EF91BF91AF919F91B5
:100400008F917F916F915F914F913F912F910F90BD
:100410000FBE0F901F9018951F920F920FB60F925C
:1004200011242F933F934F935F936F937F938F93F9
:100430009F93AF93BF93EF93FF93409148015091E7
:1004400049014F5F5F4F50934901409348019A0122
:100450003695279536952795ABE7B4E10E94921122
:100460009695879564E6689F9001699F300D1124E9
:100470004217530709F08DC08091A4019091A50106
:10048000009711F4109298018130910529F421E030
:1004900020939801209392018230910531F421E05C
:1004A0002093980122E0209392018530910531F448
:1004B00021E02093980123E0209392018B30910555
:1004C00031F421E02093980124E0209392018430BC
:1004D000910531F421E02093980125E020939201C9
:1004E0008730910531F421E02093980126E0209394
:1004F00092018D30910531F421E02093980127E09D
:10050000209392018830910531F421E020939801E5
:1005100028E0209392018E30910531F421E0209360
:10052000980129E0209392018131910531F421E075
:10053000209398012AE0209392018A30910531F4AA
:1005400021E0209398012BE02093920180319105C6
:1005500031F421E0209398012CE020939201833123
:10056000910531F421E0209398012DE02093920130
:100570008431910531F421E0209398012EE02093FD
:100580009201469731F481E0809398018FE0809347
:1005900092019A0136952795369527953695279598
:1005A000A5ECB0E20E949211929582958F708927F6
:1005B0009F70892768EE73E0869F9001879F300DBA
:1005C000969F300D11244217530709F051C06091D6
:1005D0004A0170914B0180E090E00E94AF129B01B4
:1005E000AC0110924B0110924A0160E070E080E88B
:1005F0009FE30E940E129B01AC0160935F01709318
:100600006001809361019093620160E070E080E797
:1006100092E40E940E120E948012709397016093E0
:1006200096018091460190914701892B69F0809154
:100630006E0190916F01019690936F0180936E010E
:1006400010924D0110924C0180914401082E000C33
:10065000990B60916E0170916F018617970741F0B9
:1006600084E090E00E94651680916E0180934401C1
:10067000FF91EF91BF91AF919F918F917F916F917A
:100680005F914F913F912F910F900FBE0F901F9050
:1006900018951F920F920FB60F9211242F933F932C
:1006A0008F939F93EF93FF938091810086FF09C002
:1006B000809186009091870090935E0180935D0108
:1006C00014C0809186009091870020915D01309147
:1006D0005E01821B930B82959295907F9827807F75
:1006E00098279093940180939301E1E8F0E0908142
:1006F00080E489278083FF91EF919F918F913F91B3
:100700002F910F900FBE0F901F9018951F920F9270
:100710000FB60F9211242F933F934F935F936F93D4
:100720007F938F939F93AF93BF93EF93FF938091AA
:100730004F01813079F138F0823009F441C08330C3
:1007400009F488C0A7C080915701909158018C325C
:10075000914050F48091900190919101459720F043
:1007600089E18093B40012C06091780070917900A3
:1007700080E090E00E94AF1220E030E040E85EE3CD
:100780000E943D130E9480126093B40081E4809324
:100790007C0080C02091780030917900A4E6B0E020
:1007A0000E9492112FEF33E040E050E00E946A1166
:1007B000309365012093640182E480937C006AC0D9
:1007C00010924E01E8E7F0E020813181A5E2BAE025
:1007D0000E949211408151812FEF33E0241B350B91
:1007E00040E050E00E946A11B9016350714070937B
:1007F0006D0160936C0180915001909151016817D7
:10080000790720F188E090E00E94651688E090E08A
:100810000E945D16282F30E0309351012093500143
:100820001F928F9384E091E09F938F9386E891E0ED
:100830009F938F930E94AA1390939E0180939D0192
:100840000F900F900F900F900F900F9083E4809374
:100850007C0020C0609178007091790080E090E089
:100860000E94AF1220E030E040E750E40E943D13C8
:1008700020E030E040E05CE30E943D130E948012E3
:100880007093A5016093A40180E480937C008FEFB6
:1008900080934F0180914F018F5F80934F01FF91B3
:1008A000EF91BF91AF919F918F917F916F915F91E8
:1008B0004F913F912F910F900FBE0F901F90189561
:1008C0001F920F920FB60F9211242F933F934F93C5
:1008D0005F936F937F938F939F93AF93BF93CF93C8
:1008E000EF93FF93C091C600C436C9F41092430140
:1008F000109242010BC08093C600809142019091FA
:10090000430101969093430180934201E09142019B
:10091000F0914301EA57FE4F80818111ECCFCC3634
:1009200029F560E088E090E00E94651688E090E09C
:100930000E945D16282F30E0309351012093500122
:100940001F928F9384E091E09F938F9386E891E0CC
:100950009F938F930E94AA1390939E0180939D0171
:100960000F900F900F900F900F900F90C43739F4A5
:1009700080919801811103C081E080936301C136A9
:1009800021F41092630110929901FF91EF91CF91A0
:10099000BF91AF919F918F917F916F915F914F9197
:1009A0003F912F910F900FBE0F901F9018958CEFD5
:1009B00084B989EB87B98AB189708AB982E085B92F
:1009C00090E39BB995E09093680090EF90936D0051
:1009D00080936B008093690091E09DBB84BD93E0A0
:1009E00095BD23E22093B0009093B10099EF97BD9D
:1009F00080936E0080E480937C008FEE80937A0079
:100A000010927B008EE380937E0084E480938100CB
:100A100080E280936F001092C5008FEF8093C40036
:100A200088E98093C10086E08093C20078940E9498
:100A3000930C20E048E065E086E890E00E94D90F42
:100A40000E94C90F81E090E0909301018093000122
:100A500084E090E00E945D1690E090936F01809397
:100A60006E01109201011092000120E030E543EC8C
:100A700057E46091A0017091A1018091A201909131
:100A8000A3010E940E126B017C0160914C017091D8
:100A90004D0180E090E00E94AF12A70196010E94F4
:100AA0003D130E948012709347016093460180E0DD
:100AB00090E00E945D1680939F01682F70E080E0B7
:100AC00090E00E94B11223EC35EF48E450E40E941C
:100AD0003D136093A0017093A1018093A2019093B4
:100AE000A30120915F01309160014091610150911B
:100AF00062010E940E1260936601709367018093F9
:100B00006801909369012CEB34E743E15DE30E94B7
:100B10003D130E9480127093910160939001809127
:100B2000A5018F938091A4018F93C4E0D1E0DF935E
:100B3000CF9381E891E09F938F930E94AA139093A3
:100B40009E0180939D01809197018F9380919601E2
:100B50008F93DF93CF938BE791E09F938F930E94C6
:100B6000AA1390939E0180939D0180919F011F92F3
:100B70008F93DF93CF9382E591E09F938F930E94B1
:100B8000AA1390939E0180939D012091930130912F
:100B90009401AFE9B6E40E949211929582958F700C
:100BA00089279F70892790935801809357019F93BD
:100BB0008F93DF93CF9380E791E09F938F930E9471
:100BC000AA1390939E0180939D01809165018F935C
:100BD000809164018F93DF93CF9389E591E09F9398
:100BE0008F930E94AA1390939E0180939D01809100
:100BF0006D018F9380916C018F93DF93CF9386E784
:100C000091E09F938F930E94AA1390939E018093EB
:100C10009D018DB79EB784960FB6F8949EBF0FBE08
:100C20008DBF809191018F93809190018F93DF937D
:100C3000CF938BE891E09F938F930E94AA13909398
:100C40009E0180939D01609164017091650180E037
:100C500090E00E94AF122BE734E14EEA5EE30E947F
:100C60003D1320E030E048E452E40E94A2110E94CB
:100C7000801270936B0160936A01809163010F9001
:100C80000F900F900F900F900F90882319F08130E4
:100C900079F14AC021E090910201913009F020E001
:100CA00091E030910301311190E0922321E0811114
:100CB00020E0992321F0222311F086E085B991E00C
:100CC00080910201811190E081E0209103012111C6
:100CD00001C080E0892B91E020916301213009F06F
:100CE00090E0811102C09923F9F082E085B91CC01F
:100CF00080919801813039F495B188E0892785B9D0
:100D000081E08093990191E080919801811190E0B8
:100D100081E020919901213009F080E0892321F0C0
:100D200095B188E0892785B9809103018130F1F080
:100D300018F08230A9F14DC084E4809395011F9290
:100D40008F9387E091E09F938F938AE991E09F933F
:100D50008F930E94AA1390939E0180939D010F9000
:100D60000F900F900F900F900F9033C082E58093FB
:100D700095011F928F9387E091E09F938F938AE96B
:100D800091E09F938F930E94AA1390939E0180936A
:100D90009D010F900F900F900F900F900F9019C022
:100DA00080E5809395011F928F9387E091E09F9358
:100DB0008F938AE991E09F938F930E94AA13909357
:100DC0009E0180939D010F900F900F900F900F90B8
:100DD0000F9080919801813009F07FC4E0919201D9
:100DE0008E2F90E0FC013197EF30F10508F02ACE0C
:100DF000EC5CFF4F0C948C110E94C00FEE24EA941F
:100E000005E02DE244E66FE084E10E94DD0E2DE274
:100E10004AE56FE088E20E94DD0E28E240E564E1E9
:100E200082E30E94DD0E0FEF24E141E46FE081E4F4
:100E30000E94F30D28E241E46DE281E40E94F30D8B
:100E400024E147E36FE08DE20E94F30D28E247E3DF
:100E50006DE28DE20E94F30D24E14BE46FE085E545
:100E60000E94F30D28E24BE46DE285E50E94F30D4C
:100E700025E04CE36FE08DE20E94F30D0E945C0CD4
:100E8000E1CD0E94C00FEE24EA9405E02DE244E695
:100E90006FE084E10E94DD0E2DE24AE56FE088E21A
:100EA0000E94DD0E28E240E564E182E30E94DD0E4F
:100EB0000FEF24E141E46FE081E40E94F30D28E2AA
:100EC00041E46DE281E40E94F30D24E147E36FE029
:100ED0008DE20E94F30D28E247E36DE28DE20E946D
:100EE000F30D24E14BE46FE085E50E94F30D28E269
:100EF0004BE46DE285E50E94F30D27E34CE36DE2E0
:100F00008DE20E94F30D0E945C0C9CCD0E94C00FEC
:100F1000EE24EA9405E02DE244E66FE084E10E94CD
:100F2000DD0E2DE24AE56FE088E20E94DD0E28E248
:100F300040E564E182E30E94DD0E0FEF24E141E42D
:100F40006FE081E40E94F30D28E241E46DE281E468
:100F50000E94F30D24E147E36FE08DE20E94F30D60
:100F600028E247E36DE28DE20E94F30D24E14BE4B9
:100F70006FE085E50E94F30D28E24BE46DE285E524
:100F80000E94F30D25E040E56FE081E40E94F30D3F
:100F90000E945C0C57CD0E94C00FEE24EA9405E03D
:100FA0002DE244E66FE084E10E94DD0E2DE24AE589
:100FB0006FE088E20E94DD0E28E240E564E182E312
:100FC0000E94DD0E0FEF24E141E46FE081E40E9416
:100FD000F30D28E241E46DE281E40E94F30D24E187
:100FE00047E36FE08DE20E94F30D28E247E36DE2F4
:100FF0008DE20E94F30D24E14BE46FE085E50E9451
:10100000F30D28E24BE46DE285E50E94F30D27E342
:1010100040E56DE281E40E94F30D0E945C0C12CD6C
:101020000E94C00FEE24EA9405E02DE244E66FE052
:1010300084E10E94DD0E2DE24AE56FE088E20E9425
:10104000DD0E28E240E564E182E30E94DD0E0FEF51
:1010500024E141E46FE081E40E94F30D28E241E4E1
:101060006DE281E40E94F30D24E147E36FE08DE23D
:101070000E94F30D28E247E36DE28DE20E94F30D3A
:1010800024E14BE46FE085E50E94F30D28E24BE498
:101090006DE285E50E94F30D25E04CE36FE08DE203
:1010A0000E94F30D27E34CE36DE28DE20E94F30D05
:1010B0000E945C0CC7CC0E94C00FEE24EA9405E0AD
:1010C0002DE244E66FE084E10E94DD0E2DE24AE568
:1010D0006FE088E20E94DD0E28E240E564E182E3F1
:1010E0000E94DD0E0FEF24E141E46FE081E40E94F5
:1010F000F30D28E241E46DE281E40E94F30D24E166
:1011000047E36FE08DE20E94F30D28E247E36DE2D2
:101110008DE20E94F30D24E14BE46FE085E50E942F
:10112000F30D28E24BE46DE285E50E94F30D25E026
:101130004CE36FE08DE20E94F30D25E040E56FE0A7
:1011400081E40E94F30D0E945C0C7CCC0E94C00FD5
:10115000EE24EA9405E02DE244E66FE084E10E948B
:10116000DD0E2DE24AE56FE088E20E94DD0E28E206
:1011700040E564E182E30E94DD0E0FEF24E141E4EB
:101180006FE081E40E94F30D28E241E46DE281E426
:101190000E94F30D24E147E36FE08DE20E94F30D1E
:1011A00028E247E36DE28DE20E94F30D24E14BE477
:1011B0006FE085E50E94F30D28E24BE46DE285E5E2
:1011C0000E94F30D25E04CE36FE08DE20E94F30DE9
:1011D00027E340E56DE281E40E94F30D0E945C0C80
:1011E00031CC0E94C00FEE24EA9405E02DE244E6E3
:1011F0006FE084E10E94DD0E2DE24AE56FE088E2B7
:101200000E94DD0E28E240E564E182E30E94DD0EEB
:101210000FEF24E141E46FE081E40E94F30D28E246
:1012200041E46DE281E40E94F30D24E147E36FE0C5
:101230008DE20E94F30D28E247E36DE28DE20E9409
:10124000F30D24E14BE46FE085E50E94F30D28E205
:101250004BE46DE285E50E94F30D27E34CE36DE27C
:101260008DE20E94F30D25E040E56FE081E40E94ED
:10127000F30D0E945C0CE6CB0E94C00FEE24EA94B2
:1012800005E02DE244E66FE084E10E94DD0E2DE2F0
:101290004AE56FE088E20E94DD0E28E240E564E165
:1012A00082E30E94DD0E0FEF24E141E46FE081E470
:1012B0000E94F30D28E241E46DE281E40E94F30D07
:1012C00024E147E36FE08DE20E94F30D28E247E35B
:1012D0006DE28DE20E94F30D24E14BE46FE085E5C1
:1012E0000E94F30D28E24BE46DE285E50E94F30DC8
:1012F00027E34CE36DE28DE20E94F30D27E340E526
:101300006DE281E40E94F30D0E945C0C9BCB0E9475
:10131000C00FEE24EA9405E02DE244E66FE084E19C
:101320000E94DD0E2DE24AE56FE088E20E94DD0EAC
:1013300028E240E564E182E30E94DD0E0FEF24E144
:1013400041E46FE081E40E94F30D28E241E46DE2A4
:1013500081E40E94F30D24E147E36FE08DE20E94F7
:10136000F30D28E247E36DE28DE20E94F30D24E1E4
:101370004BE46FE085E50E94F30D28E24BE46DE25B
:1013800085E50E94F30D25E040E56FE081E40E94D1
:10139000F30D27E340E56DE281E40E94F30D0E9426
:1013A0005C0C50CB0E94C00FEE24EA9405E02DE2C5
:1013B00044E66FE084E10E94DD0E2DE24AE56FE035
:1013C00088E20E94DD0E28E240E564E182E30E94AB
:1013D000DD0E0FEF24E141E46FE081E40E94F30DA4
:1013E00028E241E46DE281E40E94F30D24E147E349
:1013F0006FE08DE20E94F30D28E247E36DE28DE29B
:101400000E94F30D24E14BE46FE085E50E94F30DAB
:1014100028E24BE46DE285E50E94F30D25E04CE304
:101420006FE08DE20E94F30D27E34CE36DE28DE265
:101430000E94F30D25E040E56FE081E40E94F30D8A
:101440000E945C0CFFCA0E94C00FEE24EA9405E0E3
:101450002DE244E66FE084E10E94DD0E2DE24AE5D4
:101460006FE088E20E94DD0E28E240E564E182E35D
:101470000E94DD0E0FEF24E141E46FE081E40E9461
:10148000F30D28E241E46DE281E40E94F30D24E1D2
:1014900047E36FE08DE20E94F30D28E247E36DE23F
:1014A0008DE20E94F30D24E14BE46FE085E50E949C
:1014B000F30D28E24BE46DE285E50E94F30D25E093
:1014C0004CE36FE08DE20E94F30D27E34CE36DE205
:1014D0008DE20E94F30D27E340E56DE281E40E9476
:1014E000F30D0E945C0CAECA0E94C00FEE24EA9479
:1014F00005E02DE244E66FE084E10E94DD0E2DE27E
:101500004AE56FE088E20E94DD0E28E240E564E1F2
:1015100082E30E94DD0E0FEF24E141E46FE081E4FD
:101520000E94F30D28E241E46DE281E40E94F30D94
:1015300024E147E36FE08DE20E94F30D28E247E3E8
:101540006DE28DE20E94F30D24E14BE46FE085E54E
:101550000E94F30D28E24BE46DE285E50E94F30D55
:1015600025E04CE36FE08DE20E94F30D25E040E5BD
:101570006FE081E40E94F30D27E340E56DE281E432
:101580000E94F30D0E945C0C5DCA0E94C00FEE2405
:10159000EA9405E02DE244E66FE084E10E94DD0E6E
:1015A0002DE24AE56FE088E20E94DD0E28E240E588
:1015B00064E182E30E94DD0E0FEF24E141E46FE07D
:1015C00081E40E94F30D28E241E46DE281E40E948F
:1015D000F30D24E147E36FE08DE20E94F30D28E272
:1015E00047E36DE28DE20E94F30D24E14BE46FE0EE
:1015F00085E50E94F30D28E24BE46DE285E50E944B
:10160000F30D27E34CE36DE28DE20E94F30D25E03C
:1016100040E56FE081E40E94F30D27E340E56DE2D1
:1016200081E40E94F30D0E945C0C0CCA0E94C00F62
:10163000EE24EA9405E02DE244E66FE084E10E94A6
:10164000DD0E2DE24AE56FE088E20E94DD0E28E221
:1016500040E564E182E30E94DD0E0FEF24E141E406
:101660006FE081E40E94F30D28E241E46DE281E441
:101670000E94F30D24E147E36FE08DE20E94F30D39
:1016800028E247E36DE28DE20E94F30D24E14BE492
:101690006FE085E50E94F30D28E24BE46DE285E5FD
:1016A0000E94F30D25E04CE36FE08DE20E94F30D04
:1016B00027E34CE36DE28DE20E94F30D25E040E567
:1016C0006FE081E40E94F30D27E340E56DE281E4E1
:1016D0000E94F30D0E945C0CB5C90E94C00F60E02F
:1016E00080E00E948A0C8AE091E00E9409116AE081
:1016F00080E00E948A0C83E191E00E9409116AE077
:101700008CE30E948A0C82E591E00E94091169E154
:1017100080E00E948A0C8DE191E00E94091169E14C
:1017200084E10E948A0C86E891E00E94091169E137
:1017300082E30E948A0C82E291E00E94091169E131
:101740008AE50E948A0C80E791E00E94091163E219
:1017500080E00E948A0C89E291E00E94091163E214
:1017600086E40E948A0C8BE891E00E94091163E2F2
:1017700084E60E948A0C85E391E00E94091162E3ED
:1017800080E00E948A0C81E891E00E94091162E3E6
:101790008EE10E948A0C8AE391E00E94091162E3C3
:1017A00084E60E948A0C8AE991E00E94091160E0B7
:1017B00084E60E948A0C86E791E00E94091160E0AD
:1017C00088E70E948A0C8DE391E00E9409116AE08B
:1017D00084E60E948A0C89E591E00E9409116AE082
:1017E00088E70E948A0C8FE391E00E9409110FEFB5
:1017F00029E045E561E082E30E94860E28E047E5A6
:1018000064E085E50E94C40F29E040916A0161E02F
:1018100082E30E94C40F0E945C0C14C96695669511
:101820006695E82FF0E080E8689FE00DF11D112437
:10183000E155FE4F40830895669566956695E82FBD
:10184000F0E080E8689FE00DF11D1124E155FE4FA6
:10185000808108950F931F93CF93DF93C82F8B013F
:10186000D42F0E944C1188E70E945E118C2F0E9499
:101870005E11C0E007C0F801EC0FF11D80810E94ED
:101880005E11CF5FCD17B8F30E945611DF91CF9153
:101890001F910F910895CF93DF931F92CDB7DEB7BD
:1018A000898341E0BE016F5F7F4F80E00E942A0C78
:1018B0000F90DF91CF910895CF9381E20E944B0C5E
:1018C00080E00E944B0C8FE70E944B0C82E20E944A
:1018D0004B0C80E00E944B0C87E00E944B0CC0E058
:1018E0000BC080E1C89FB001112461557E4F40E1DB
:1018F00080E40E942A0CCF5FC03498F3CF91089502
:10190000882314F08093A6010895803410F4809306
:10191000A7010895CF93C62F0E94800C8C2F0E94A0
:10192000850CCF9108950E9420118EEA0E944B0CE5
:1019300085ED0E944B0C80EF0E944B0C88EA0E94C0
:101940004B0C8FE30E944B0C83ED0E944B0C80E00C
:101950000E944B0C8DE80E944B0C84E10E944B0CC2
:1019600080E40E944B0C80E20E944B0C80E00E94BD
:101970004B0C81EA0E944B0C88EC0E944B0C8AEDC8
:101980000E944B0C82E10E944B0C81E80E944B0CA0
:101990008FEF0E944B0C89ED0E944B0C81EF0E944F
:1019A0004B0C8BED0E944B0C80E20E944B0C84EAA6
:1019B0000E944B0C86EA0E944B0C8EE20E944B0C5C
:1019C0008FEA0E944B0C60E080E00E948A0CE6EAFD
:1019D000F1E086EA828317821682158211821082D4
:1019E0000895FF920F931F93CF93DF93C62F142F69
:1019F0000E948A0CE6EAF1E0F180D0816F2D8D2FF4
:101A00000E941C0C1F3F79F4C77001E010E020E039
:101A100030E004C0000F111F221F331FCA95D2F7F8
:101A2000482F402B0FC0C77001E010E020E030E0ED
:101A300004C0000F111F221F331FCA95D2F7009553
:101A4000402F48236F2D8D2F0E940E0CDF91CF91D8
:101A50001F910F91FF9008956F927F928F929F92A6
:101A6000AF92BF92CF92DF92EF92FF920F931F93AC
:101A7000CF93DF9388230CF4A7C044230CF4A4C0B5
:101A8000603408F0A1C0203408F09EC0261B9924C1
:101A90009394920E481BD1E0D40F962F9770162F77
:101AA000191BE92CF12C28E030E0291B3109E21642
:101AB000F3067CF428E030E02E193F094FEF50E0A8
:101AC0006A0102C0D594C7942A95E2F72C2DB92C4F
:101AD00004C028E0B22EB91A2FEFA82EC22ED12CA6
:101AE00002C0CC0CDD1C9A95E2F76C2C612F0E9491
:101AF0008A0C812C19C0E6EAF1E07180C081672D63
:101B00008C2F0E941C0C0F3F19F4462D482B03C04C
:101B10004C2D4095482381E08C0F8093A601672DC2
:101B20008C2F0E940E0C83948D1628F316C088E02B
:101B3000B80E185F612F8A2D0E948A0CC0E00BC07E
:101B4000E6EAF1E06181808191E0980F9083402F77
:101B50000E940E0CCF5FCD1798F38B2D90E09C0167
:101B6000285F3F4FE216F30614F7B91468F5E81A38
:101B7000F90A8FEF90E002C0880F991FEA94E2F70C
:101B8000E82EE09468E0610F8A2D0E948A0C10E034
:101B900019C0E6EAF1E0F180C0816F2D8C2F0E9420
:101BA0001C0C0F3F19F44E2D482B03C04E2D4095B1
:101BB000482381E08C0F8093A6016F2D8C2F0E940B
:101BC0000E0C1F5F1D1728F3DF91CF911F910F910E
:101BD000FF90EF90DF90CF90BF90AF909F908F904D
:101BE0007F906F9008958F929F92AF92BF92CF9205
:101BF000DF92EF92FF920F931F93CF93DF93C82F43
:101C0000D62F142F88230CF474C044230CF471C015
:101C1000603408F06EC0203408F06BC084130AC032
:101C2000261710F4D22F262F4C2F6D2F8C2F0E94A9
:101C30002C0D5FC062130EC0481748F4C42F182F34
:101C400006C0402F6D2F8C2F0E94F10CCF5F1C1708
:101C5000C0F74FC0261728F4C62ED12CC21AD108BF
:101C600004C0C22ED12CC61AD1081C1728F4AC2EE1
:101C7000B12CA11AB10804C0A12EB12CAC1AB10824
:101C8000AC14BD0434F4812F122F282F8C2FCD2FAC
:101C9000D82F1C1730F48D2FD22F282F8C2FC12F27
:101CA000182F912E9C1AD21718F4E22EED1A02C0AA
:101CB000ED2EE21AF92CF694D21718F488248394A6
:101CC00016C088248A9413C0AC14BD0434F4402F89
:101CD0006C2F8D2F0E94F10C05C0402F6D2F8C2F83
:101CE0000E94F10CFE1812F4D80DF90CCF5F1C17EE
:101CF00058F7DF91CF911F910F91FF90EF90DF90F8
:101D0000CF90BF90AF909F908F900895DF92EF9209
:101D1000FF920F931F93CF93DF9388230CF445C05A
:101D200044230CF442C0603408F03FC02034E8F58E
:101D3000D02F122FD42EF62EE82E481718F0042F8D
:101D4000C82F09C0082FC42F06C04D2F6F2D8C2F10
:101D50000E94F10CCF5F0C17C0F7DE1418F00D2DA8
:101D6000CE2D09C00E2DCD2D06C04D2F612F8C2FED
:101D70000E94F10CCF5F0C17C0F71F1518F0212F30
:101D80006F2D02C02F2D612F0D2F4E2D8E2D0E94F5
:101D90002C0D1F1518F0212F6F2D02C02F2D612F34
:101DA0000D2F4D2D8D2D0E942C0DDF91CF911F9168
:101DB0000F91FF90EF90DF9008956F927F928F9236
:101DC0009F92AF92BF92CF92DF92EF92FF920F93CA
:101DD0001F93CF93DF9388230CF4ACC044230CF4FF
:101DE000A9C0603408F0A6C0203408F0A3C0902E2B
:101DF000122F842ED62F782E802F90E0880F991FD7
:101E000023E030E06901C81AD90AF42EF01AB72C81
:101E1000B00EFB1418F0AF2CCB2D09C0AB2CCF2D7E
:101E200006C04E2D6D2F8C2F0E94F10CCF5FAC168B
:101E3000C0F7FB1418F0AF2CCB2D09C0AB2CCF2D65
:101E400006C04E2D612F8C2F0E94F10CCF5FAC1677
:101E5000C0F71919D90D1D1718F0212F6D2F02C0C9
:101E60002D2F612F0E2D472D872D0E942C0D1D1714
:101E700018F0212F6D2F02C02D2F612F0E2D482D10
:101E8000882D0E942C0D092DC0E051C04E2D8D2EA5
:101E9000801A682D9B2C9C1A892D0E94F10C4E2DC6
:101EA000AD2EAC1A6A2D6B2C601A862D0E94F10C97
:101EB0004E2D682D8C2E8F0C882D0E94F10C4E2DEE
:101EC0006A2DA02EAF0C8A2D0E94F10C4E2D702E83
:101ED000710E672D892D0E94F10C4E2D9C2E910EB6
:101EE000692D862D0E94F10C4E2D672D882D0E94A4
:101EF000F10C4E2D692D8A2D0E94F10CDD2054F439
:101F00008C2F90E0880F991F880F991F0696C80E96
:101F1000D91E0CC08C2F90E0801B9109880F991F4F
:101F2000880F991F0A96C80ED91E0150CF5F0C1753
:101F300008F0ACCFDF91CF911F910F91FF90EF9000
:101F4000DF90CF90BF90AF909F908F907F906F90D9
:101F500008951F93CF93DF93182FD0E00BC0412F2C
:101F60006D2F8C2F0E940E0CCF5F01C0C0E0CC23E0
:101F7000B4F7D85FD034D0F3DF91CF911F9108959B
:101F800080E00E94A90F08950F930E942C0D0F91DD
:101F900008958091A801873A21F486EA8093A801E8
:101FA00003C087EA8093A8018091A8010E944B0C8E
:101FB00008956623E4F04034D0F42230C0F4E6EA19
:101FC000F1E0948383836583468350E04150510957
:101FD000CA0199230CF40796959587959595879551
:101FE00095958795E6EAF1E08F5F878320870895CE
:101FF0004F925F926F927F928F929F92AF92BF9219
:10200000CF92DF92EF92FF920F931F93CF93DF93C4
:10201000A6EAB1E05C9011964C901197805215960B
:102020009C91159717962C911797929F90011124C8
:102030002F5F3F4F829FA001839F500D1124139665
:10204000ED91FC9114975A018FEFA81AB80AE40F8A
:10205000F51F7490842D8770982E642C812C5FC09E
:10206000662D852D0E948A0C7501E80CF11C670114
:1020700081E0C81AD10810E041C08091A901909177
:10208000AA01FC01EE0DFF1D2491492D50E030E026
:10209000092C02C0220F331F0A94E2F7022F882076
:1020A000A1F0FC01EC0DFD1DE49188E090E0841BA3
:1020B000950BF0E002C0F595E7958A95E2F70E2FB3
:1020C000022B8091AD01C80ED11C8091AE018130F0
:1020D00039F4E6EAF1E0618180810E941C0C082B52
:1020E000C6EAD1E06981888191E0980F9883402FFA
:1020F0000E940E0C8F81E80EF11C1F5F171508F46B
:10210000BCCF8091AE01811107C0E6EAF1E040E06A
:10211000618180810E940E0C88E0680E839480911A
:10212000AD01881608F49CCF242D2695269526957A
:1021300030E08091AC0190E0840D911D0197AC01DD
:1021400012F4495F5F4F55954795559547955595BD
:1021500047952417350709F445C08FE3861508F421
:1021600041C0662D852D0E948A0CA80CB11C81E00F
:10217000A81AB10800E029C0C6EAD1E0F9801881A8
:102180006F2D812F0E941C0CEB81FC81EA0DFB1D41
:10219000449128E030E02919310950E002C05595FA
:1021A00047952A95E2F7482B9885913009F4482BFA
:1021B000C6EAD1E081E0810F88836F2D812F0E94D4
:1021C0000E0C8F81A80EB11C0F5F0715A8F280912D
:1021D000AE01811107C0E6EAF1E040E06181808153
:1021E0000E940E0C852D870D642D8F5F0E948A0C36
:1021F000DF91CF911F910F91FF90EF90DF90CF90E3
:10220000BF90AF909F908F907F906F905F904F9016
:102210000895CF93DF93EC010DC0E6EAF1E09081E1
:10222000258130E0290F311D2038310534F4219605
:102230000E94F80F88818111F0CFDF91CF9108952E
:1022400087B1806187B987B1806287B988B18061C1
:1022500088B988B1806288B91092B9006091AF05E1
:1022600070E080E090E020EA36E841E050E00E9433
:102270006A11DA01C9014097A109B109B695A7957C
:10228000979587958093B80084E08093BC0008956B
:102290008091B900887F089584EA8093BC00809182
:1022A000BC008823E4F70E944811089585ED8093CF
:1022B000BC008091BC0084FDFCCF08958093BB00DE
:1022C00084E88093BC008091BC008823E4F70E94DE
:1022D00048110895A1E21A2EAA1BBB1BFD010DC0D7
:1022E000AA1FBB1FEE1FFF1FA217B307E407F507C6
:1022F00020F0A21BB30BE40BF50B661F771F881FA2
:10230000991F1A9469F760957095809590959B0137
:10231000AC01BD01CF010895EE0FFF1F0590F491B0
:10232000E02D0994A29FB001B39FC001A39F700D3F
:10233000811D1124911DB29F700D811D1124911DCD
:1023400008955058BB27AA270E94B9110C94031373
:102350000E94F51238F00E94FC1220F039F49F3FE1
:1023600019F426F40C94F2120EF4E095E7FB0C94A9
:10237000EC12E92F0E94141358F3BA17620773077F
:102380008407950720F079F4A6F50C9436130EF423
:10239000E0950B2EBA2FA02D0B01B90190010C0175
:1023A000CA01A0011124FF27591B99F0593F50F48D
:1023B000503E68F11A16F040A22F232F342F4427E5
:1023C000585FF3CF469537952795A795F0405395DD
:1023D000C9F77EF41F16BA0B620B730B840BBAF0AD
:1023E0009150A1F0FF0FBB1F661F771F881FC2F718
:1023F0000EC0BA0F621F731F841F48F4879577952C
:102400006795B795F7959E3F08F0B0CF9395880FE5
:1024100008F09927EE0F9795879508950E9422124C
:102420000C9403130E94FC1258F00E94F51240F025
:1024300029F45F3F29F00C94EC1251110C943713DE
:102440000C94F2120E94141368F39923B1F35523EC
:1024500091F3951B550BBB27AA27621773078407B7
:1024600038F09F5F5F4F220F331F441FAA1FA9F34D
:1024700035D00E2E3AF0E0E832D091505040E6953B
:10248000001CCAF72BD0FE2F29D0660F771F881F9C
:10249000BB1F261737074807AB07B0E809F0BB0B8F
:1024A000802DBF01FF2793585F4F3AF09E3F5105A3
:1024B00078F00C94EC120C9437135F3FE4F3983EE1
:1024C000D4F3869577956795B795F7959F5FC9F78C
:1024D000880F911D9695879597F90895E1E0660F0D
:1024E000771F881FBB1F621773078407BA0720F086
:1024F000621B730B840BBA0BEE1F88F7E0950895EF
:102500000E941C1388F09F5798F0B92F9927B75154
:10251000B0F0E1F0660F771F881F991F1AF0BA9587
:10252000C9F714C0B13091F00E943613B1E008959C
:102530000C943613672F782F8827B85F39F0B93F8E
:10254000CCF3869577956795B395D9F73EF490953A
:102550008095709561957F4F8F4F9F4F0895E894B8
:1025600009C097FB3EF490958095709561957F4FDB
:102570008F4F9F4F9923A9F0F92F96E9BB27939589
:10258000F695879577956795B795F111F8CFFAF499
:10259000BB0F11F460FF1BC06F5F7F4F8F4F9F4FCA
:1025A00016C0882311F096E911C0772321F09EE828
:1025B000872F762F05C0662371F096E8862F70E08E
:1025C00060E02AF09A95660F771F881FDAF7880F68
:1025D0009695879597F9089597F99F6780E870E039
:1025E00060E008959FEF80EC089500240A94161689
:1025F000170618060906089500240A9412161306F1
:10260000140605060895092E0394000C11F488237E
:1026100052F0BB0F40F4BF2B11F460FF04C06F5F9A
:102620007F4F8F4F9F4F089557FD9058440F551F70
:1026300059F05F3F71F04795880F97FB991F61F044
:102640009F3F79F087950895121613061406551FBB
:10265000F2CF4695F1DF08C0161617061806991F27
:10266000F1CF86957105610508940895E894BB271C
:1026700066277727CB0197F908950E9450130C9491
:1026800003130E94F51238F00E94FC1220F09523EB
:1026900011F00C94EC120C94F21211240C943713D8
:1026A0000E94141370F3959FC1F3950F50E0551FCE
:1026B000629FF001729FBB27F00DB11D639FAA2797
:1026C000F00DB11DAA1F649F6627B00DA11D661FE6
:1026D000829F2227B00DA11D621F739FB00DA11D07
:1026E000621F839FA00D611D221F749F3327A00DC1
:1026F000611D231F849F600D211D822F762F6A2F5D
:1027000011249F5750409AF0F1F088234AF0EE0FC1
:10271000FF1FBB1F661F771F881F91505040A9F7EE
:102720009E3F510580F00C94EC120C9437135F3FE0
:10273000E4F3983ED4F3869577956795B795F7952A
:10274000E7959F5FC1F7FE2B880F911D96958795A2
:1027500097F90895AEE0B0E0E0EBF3E10C94811658
:102760000D891E8986E08C831A8309838FEF9FE78A
:102770009E838D83AE01475E5F4F6F89788DCE015A
:1027800001960E94CC13EF81F885E00FF11F1082B3
:102790002E96E4E00C949D16ABE0B0E0E2EDF3E1A0
:1027A0000C9473166C017B018A01FC01178216825E
:1027B000838181FFCCC1CE0101963C01F60193815A
:1027C000F70193FD859193FF81917F01882309F49F
:1027D000BAC1853239F493FD859193FF81917F01D0
:1027E000853229F4B60190E00E94C315E7CF912C01
:1027F000212C312CFFE1F315D8F08B3279F038F42D
:10280000803279F08332A1F4232D20611DC08D32F6
:1028100061F0803369F4232D216016C0832D82601E
:10282000382EE32DE4603E2E2AC0F32DF8601DC043
:1028300037FC2DC020ED280F2A3040F08E32B9F43D
:1028400036FC81C1232D2064322E19C036FE06C00D
:102850008AE0989E200D1124922E11C0EAE02E9E4F
:10286000200D1124222EF32DF0623F2E08C08C364D
:1028700021F4832D8068382E02C0883641F4F70198
:1028800093FD859193FF81917F018111B3CF982FA3
:102890009F7D9554933028F40C5F1F4F9FE39983DD
:1028A0000DC0833631F0833771F0833509F059C09C
:1028B00021C0F801808189830E5F1F4F8824839493
:1028C000912C530113C02801F2E04F0E511CF80166
:1028D000A080B18036FE03C0692D70E002C06FEFAA
:1028E0007FEFC5010E94B8154C018201F32DFF77DF
:1028F0003F2E16C0280122E0420E511CF801A08094
:10290000B18036FE03C0692D70E002C06FEF7FEF2B
:10291000C5010E94AD154C01F32DF0683F2E8201D8
:1029200033FC1BC0822D90E088169906B0F4B601E6
:1029300080E290E00E94C3152A94F4CFF50137FCA1
:10294000859137FE81915F01B60190E00E94C31529
:1029500021102A9421E0821A91088114910471F7C0
:10296000E8C0843611F0893641F5F80137FE07C01A
:1029700060817181828193810C5F1F4F08C06081EB
:102980007181072E000C880B990B0E5F1F4FF32DE2
:10299000FF763F2E97FF09C09095809570956195C1
:1029A0007F4F8F4F9F4FF0683F2E2AE030E0A3010A
:1029B0000E94FF15882E861845C0853731F4232DD7
:1029C0002F7EB22E2AE030E025C0932D997FB92EBC
:1029D0008F36C1F018F4883579F0B5C0803719F01A
:1029E000883721F0B0C0E92FE061BE2EB4FE0DC0E3
:1029F000FB2DF460BF2E09C034FE0AC0292F2660CB
:102A0000B22E06C028E030E005C020E130E002C070
:102A100020E132E0F801B7FE07C060817181828158
:102A200093810C5F1F4F06C06081718180E090E050
:102A30000E5F1F4FA3010E94FF15882E8618FB2DE5
:102A4000FF773F2E36FE0DC0232D2E7FA22E891438
:102A500058F434FE0BC032FC09C0832D8E7EA82EA4
:102A600005C0B82CA32C03C0B82C01C0B92CA4FEFF
:102A70000FC0FE01E80DF11D8081803321F49A2DF5
:102A8000997EA92E09C0A2FE06C0B394B39404C0D7
:102A90008A2D867809F0B394A3FC11C0A0FE06C06D
:102AA000B21488F4280C922C9B180EC0B21460F457
:102AB000B60180E290E00E94C315B394F7CFB21440
:102AC00018F42B1802C0982C212CA4FE10C0B601BB
:102AD00080E390E00E94C315A2FE17C0A1FC03C0D2
:102AE00088E790E002C088E590E0B6010CC08A2D2E
:102AF000867859F0A1FE02C08BE201C080E2A7FCFB
:102B00008DE2B60190E00E94C315891438F4B60135
:102B100080E390E00E94C3159A94F7CF8A94F30162
:102B2000E80DF11D8081B60190E00E94C31581106F
:102B3000F5CF222009F442CEB60180E290E00E9457
:102B4000C3152A94F6CFF6018681978102C08FEFD4
:102B50009FEF2B96E2E10C948F16FC0105906150DB
:102B600070400110D8F7809590958E0F9F1F0895A3
:102B7000FC016150704001900110D8F7809590954C
:102B80008E0F9F1F08950F931F93CF93DF93FB0129
:102B9000238121FD03C08FEF9FEF2CC022FF16C0C1
:102BA00046815781248135814217530744F4A0811F
:102BB000B1819D012F5F3F4F318320838C9326810C
:102BC00037812F5F3F4F3783268314C08B01EC0181
:102BD000FB010084F185E02D0995892BE1F6D801F0
:102BE00016968D919C911797019617969C938E93AC
:102BF0001697CE01DF91CF911F910F910895FA01A1
:102C0000AA27283051F1203181F1E8946F936E7F2B
:102C10006E5F7F4F8F4F9F4FAF4FB1E03ED0B4E01C
:102C20003CD0670F781F891F9A1FA11D680F791F5D
:102C30008A1F911DA11D6A0F711D811D911DA11D6E
:102C400020D009F468943F912AE0269F112430197E
:102C5000305D3193DEF6CF010895462F4770405D19
:102C60004193B3E00FD0C9F7F6CF462F4F70405DC8
:102C70004A3318F0495D31FD4052419302D0A9F723
:102C8000EACFB4E0A6959795879577956795BA951D
:102C9000C9F700976105710508959B01AC010A2EE3
:102CA00006945795479537952795BA95C9F7620FBA
:102CB000731F841F951FA01D0895F999FECF92BD23
:102CC00081BDF89A992780B50895262FF999FECFEE
:102CD0001FBA92BD81BD20BD0FB6F894FA9AF99A39
:102CE0000FBE019608952F923F924F925F926F927E
:102CF0007F928F929F92AF92BF92CF92DF92EF928C
:102D0000FF920F931F93CF93DF93CDB7DEB7CA1B0C
:102D1000DB0B0FB6F894DEBF0FBECDBF09942A8837
:102D2000398848885F846E847D848C849B84AA84DF
:102D3000B984C884DF80EE80FD800C811B81AA816C
:102D4000B981CE0FD11D0FB6F894DEBF0FBECDBF37
:082D5000ED010895F894FFCF96
:102D5800010001022564002563004C4153442043CF
:102D68006172004469616D28636D293A0052504DC3
:102D78003A00536F6E61723A0056656C6F6369640E
:102D88006164653A006B6D2F68004B6D0043002548
:022D9800000039
:00000001FF
